{
  "contractName": "MultiSendERC20Dealer",
  "abi": [
    {
      "constant": true,
      "inputs": [],
      "name": "owner",
      "outputs": [
        {
          "name": "",
          "type": "address"
        }
      ],
      "payable": false,
      "stateMutability": "view",
      "type": "function"
    },
    {
      "constant": false,
      "inputs": [
        {
          "name": "newOwner",
          "type": "address"
        }
      ],
      "name": "transferOwnership",
      "outputs": [],
      "payable": false,
      "stateMutability": "nonpayable",
      "type": "function"
    },
    {
      "payable": true,
      "stateMutability": "payable",
      "type": "fallback"
    },
    {
      "anonymous": false,
      "inputs": [
        {
          "indexed": false,
          "name": "receiver",
          "type": "address"
        },
        {
          "indexed": false,
          "name": "amount",
          "type": "uint256"
        }
      ],
      "name": "TokenDropLog",
      "type": "event"
    },
    {
      "anonymous": false,
      "inputs": [
        {
          "indexed": true,
          "name": "previousOwner",
          "type": "address"
        },
        {
          "indexed": true,
          "name": "newOwner",
          "type": "address"
        }
      ],
      "name": "OwnershipTransferred",
      "type": "event"
    },
    {
      "constant": false,
      "inputs": [
        {
          "name": "_tokenAddr",
          "type": "address"
        },
        {
          "name": "_tokenSupplier",
          "type": "address"
        },
        {
          "name": "_dealer",
          "type": "address"
        },
        {
          "name": "_price",
          "type": "uint256"
        },
        {
          "name": "recipients",
          "type": "address[]"
        },
        {
          "name": "amounts",
          "type": "uint256[]"
        }
      ],
      "name": "multiSend",
      "outputs": [],
      "payable": true,
      "stateMutability": "payable",
      "type": "function"
    }
  ],
  "bytecode": "0x606060405260008054600160a060020a033316600160a060020a0319909116179055610378806100306000396000f3006060604052600436106100565763ffffffff7c01000000000000000000000000000000000000000000000000000000006000350416638da5cb5b81146100585780639efb5a5514610087578063f2fde38b146100c4575b005b341561006357600080fd5b61006b6100e3565b604051600160a060020a03909116815260200160405180910390f35b61005660048035600160a060020a03908116916024803583169260443516916064359160843580820192908101359160a4359081019101356100f2565b34156100cf57600080fd5b610056600160a060020a03600435166102b1565b600054600160a060020a031681565b60008054819033600160a060020a0390811691161461011057600080fd5b84831461011c57600080fd5b600160a060020a03881687156108fc0288604051600060405180830381858888f19350505050151561014d57600080fd5b5088905060005b848110156102a557600160a060020a0382166323b872dd8a88888581811061017857fe5b90506020020135600160a060020a0316878786818110151561019657fe5b905060200201356000604051602001526040517c010000000000000000000000000000000000000000000000000000000063ffffffff8616028152600160a060020a0393841660048201529190921660248201526044810191909152606401602060405180830381600087803b151561020e57600080fd5b6102c65a03f1151561021f57600080fd5b5050506040518051507f873074ca4c984cb6f1fb306295e51b68a065cf15a5fc80cea5d4655ab32300ab905086868381811061025757fe5b90506020020135600160a060020a0316858584818110151561027557fe5b90506020020135604051600160a060020a03909216825260208201526040908101905180910390a1600101610154565b50505050505050505050565b60005433600160a060020a039081169116146102cc57600080fd5b600160a060020a03811615156102e157600080fd5b600054600160a060020a0380831691167f8be0079c531659141344cd1fd0a4f28419497f9722a3daafe3b4186f6b6457e060405160405180910390a36000805473ffffffffffffffffffffffffffffffffffffffff1916600160a060020a03929092169190911790555600a165627a7a7230582011abfb4efdd4a4e94619ae5edea09d274d9ac6c935bcb1dd915737adb8bf6e160029",
  "source": "pragma solidity 0.4.19;\n\nimport \"zeppelin-solidity/contracts/ownership/Ownable.sol\";\nimport \"zeppelin-solidity/contracts/token/ERC20/ERC20.sol\";\n\n\ncontract MultiSendERC20Dealer is Ownable {\n  \n  event TokenDropLog( address receiver, uint256 amount );\n\n  function multiSend(address _tokenAddr, address _tokenSupplier, address _dealer, uint256 _price, address[] recipients, uint256[] amounts) external onlyOwner payable {\n    require(recipients.length == amounts.length);\n\n    _dealer.transfer(_price);\n\n    ERC20 token = ERC20(_tokenAddr);\n\n    for (uint256 i = 0; i < recipients.length; i++) {\n      token.transferFrom(_tokenSupplier, recipients[i], amounts[i]);\n      TokenDropLog(recipients[i], amounts[i]);\n    }\n  }\n\n  function () external payable {}\n}",
  "sourcePath": "/opt/go/src/github.com/tokenme/airdroppers/contracts/MultiSendERC20Dealer.sol",
  "compiler": {
    "name": "solc",
    "version": "0.4.19+commit.c4cbbb05.Emscripten.clang"
  },
  "schemaVersion": "2.0.0",
  "updatedAt": "2018-03-04T15:26:38.856Z"
}